{
  "contractName": "BEPMotoNFT",
  "abi": [
    {
      "inputs": [
        {
          "internalType": "string",
          "name": "_name",
          "type": "string"
        },
        {
          "internalType": "string",
          "name": "_symbol",
          "type": "string"
        }
      ],
      "stateMutability": "nonpayable",
      "type": "constructor"
    },
    {
      "anonymous": false,
      "inputs": [
        {
          "indexed": true,
          "internalType": "address",
          "name": "newAdmin",
          "type": "address"
        }
      ],
      "name": "AdminAdded",
      "type": "event"
    },
    {
      "anonymous": false,
      "inputs": [
        {
          "indexed": true,
          "internalType": "address",
          "name": "oldAdmin",
          "type": "address"
        }
      ],
      "name": "AdminRemoved",
      "type": "event"
    },
    {
      "anonymous": false,
      "inputs": [
        {
          "indexed": true,
          "internalType": "address",
          "name": "owner",
          "type": "address"
        },
        {
          "indexed": true,
          "internalType": "address",
          "name": "approved",
          "type": "address"
        },
        {
          "indexed": true,
          "internalType": "uint256",
          "name": "tokenId",
          "type": "uint256"
        }
      ],
      "name": "Approval",
      "type": "event"
    },
    {
      "anonymous": false,
      "inputs": [
        {
          "indexed": true,
          "internalType": "address",
          "name": "owner",
          "type": "address"
        },
        {
          "indexed": true,
          "internalType": "address",
          "name": "operator",
          "type": "address"
        },
        {
          "indexed": false,
          "internalType": "bool",
          "name": "approved",
          "type": "bool"
        }
      ],
      "name": "ApprovalForAll",
      "type": "event"
    },
    {
      "anonymous": false,
      "inputs": [
        {
          "indexed": true,
          "internalType": "address",
          "name": "newMinter",
          "type": "address"
        }
      ],
      "name": "MinterAdded",
      "type": "event"
    },
    {
      "anonymous": false,
      "inputs": [
        {
          "indexed": true,
          "internalType": "address",
          "name": "oldMinter",
          "type": "address"
        }
      ],
      "name": "MinterRemoved",
      "type": "event"
    },
    {
      "anonymous": false,
      "inputs": [
        {
          "indexed": true,
          "internalType": "address",
          "name": "burner",
          "type": "address"
        },
        {
          "indexed": true,
          "internalType": "uint256",
          "name": "tokenID",
          "type": "uint256"
        }
      ],
      "name": "NFTBurned",
      "type": "event"
    },
    {
      "anonymous": false,
      "inputs": [
        {
          "indexed": true,
          "internalType": "address",
          "name": "owner",
          "type": "address"
        },
        {
          "indexed": true,
          "internalType": "uint256",
          "name": "tokenID",
          "type": "uint256"
        }
      ],
      "name": "NFTMinted",
      "type": "event"
    },
    {
      "anonymous": false,
      "inputs": [
        {
          "indexed": false,
          "internalType": "string",
          "name": "feeName",
          "type": "string"
        },
        {
          "indexed": true,
          "internalType": "uint256",
          "name": "feeAmount",
          "type": "uint256"
        },
        {
          "indexed": false,
          "internalType": "address",
          "name": "adjuster",
          "type": "address"
        }
      ],
      "name": "NewFeeSet",
      "type": "event"
    },
    {
      "anonymous": false,
      "inputs": [
        {
          "indexed": true,
          "internalType": "address",
          "name": "previousOwner",
          "type": "address"
        },
        {
          "indexed": true,
          "internalType": "address",
          "name": "newOwner",
          "type": "address"
        }
      ],
      "name": "OwnershipTransferred",
      "type": "event"
    },
    {
      "anonymous": false,
      "inputs": [
        {
          "indexed": true,
          "internalType": "address",
          "name": "from",
          "type": "address"
        },
        {
          "indexed": true,
          "internalType": "address",
          "name": "to",
          "type": "address"
        },
        {
          "indexed": true,
          "internalType": "uint256",
          "name": "tokenId",
          "type": "uint256"
        }
      ],
      "name": "Transfer",
      "type": "event"
    },
    {
      "inputs": [
        {
          "internalType": "address",
          "name": "newAdmin",
          "type": "address"
        }
      ],
      "name": "addAdmin",
      "outputs": [],
      "stateMutability": "nonpayable",
      "type": "function"
    },
    {
      "inputs": [
        {
          "internalType": "address",
          "name": "newMinter",
          "type": "address"
        }
      ],
      "name": "addMinter",
      "outputs": [],
      "stateMutability": "nonpayable",
      "type": "function"
    },
    {
      "inputs": [
        {
          "internalType": "address",
          "name": "to",
          "type": "address"
        },
        {
          "internalType": "uint256",
          "name": "tokenId",
          "type": "uint256"
        }
      ],
      "name": "approve",
      "outputs": [],
      "stateMutability": "nonpayable",
      "type": "function"
    },
    {
      "inputs": [
        {
          "internalType": "address",
          "name": "owner",
          "type": "address"
        }
      ],
      "name": "balanceOf",
      "outputs": [
        {
          "internalType": "uint256",
          "name": "",
          "type": "uint256"
        }
      ],
      "stateMutability": "view",
      "type": "function",
      "constant": true
    },
    {
      "inputs": [
        {
          "internalType": "uint256",
          "name": "tokenId",
          "type": "uint256"
        }
      ],
      "name": "getApproved",
      "outputs": [
        {
          "internalType": "address",
          "name": "",
          "type": "address"
        }
      ],
      "stateMutability": "view",
      "type": "function",
      "constant": true
    },
    {
      "inputs": [
        {
          "internalType": "address",
          "name": "owner",
          "type": "address"
        },
        {
          "internalType": "address",
          "name": "operator",
          "type": "address"
        }
      ],
      "name": "isApprovedForAll",
      "outputs": [
        {
          "internalType": "bool",
          "name": "",
          "type": "bool"
        }
      ],
      "stateMutability": "view",
      "type": "function",
      "constant": true
    },
    {
      "inputs": [],
      "name": "name",
      "outputs": [
        {
          "internalType": "string",
          "name": "",
          "type": "string"
        }
      ],
      "stateMutability": "view",
      "type": "function",
      "constant": true
    },
    {
      "inputs": [],
      "name": "owner",
      "outputs": [
        {
          "internalType": "address",
          "name": "",
          "type": "address"
        }
      ],
      "stateMutability": "view",
      "type": "function",
      "constant": true
    },
    {
      "inputs": [
        {
          "internalType": "uint256",
          "name": "tokenId",
          "type": "uint256"
        }
      ],
      "name": "ownerOf",
      "outputs": [
        {
          "internalType": "address",
          "name": "",
          "type": "address"
        }
      ],
      "stateMutability": "view",
      "type": "function",
      "constant": true
    },
    {
      "inputs": [
        {
          "internalType": "address",
          "name": "oldAdmin",
          "type": "address"
        }
      ],
      "name": "removeAdmin",
      "outputs": [],
      "stateMutability": "nonpayable",
      "type": "function"
    },
    {
      "inputs": [
        {
          "internalType": "address",
          "name": "oldMinter",
          "type": "address"
        }
      ],
      "name": "removeMinter",
      "outputs": [],
      "stateMutability": "nonpayable",
      "type": "function"
    },
    {
      "inputs": [],
      "name": "renounceOwnership",
      "outputs": [],
      "stateMutability": "nonpayable",
      "type": "function"
    },
    {
      "inputs": [
        {
          "internalType": "address",
          "name": "from",
          "type": "address"
        },
        {
          "internalType": "address",
          "name": "to",
          "type": "address"
        },
        {
          "internalType": "uint256",
          "name": "tokenId",
          "type": "uint256"
        }
      ],
      "name": "safeTransferFrom",
      "outputs": [],
      "stateMutability": "nonpayable",
      "type": "function"
    },
    {
      "inputs": [
        {
          "internalType": "address",
          "name": "from",
          "type": "address"
        },
        {
          "internalType": "address",
          "name": "to",
          "type": "address"
        },
        {
          "internalType": "uint256",
          "name": "tokenId",
          "type": "uint256"
        },
        {
          "internalType": "bytes",
          "name": "_data",
          "type": "bytes"
        }
      ],
      "name": "safeTransferFrom",
      "outputs": [],
      "stateMutability": "nonpayable",
      "type": "function"
    },
    {
      "inputs": [
        {
          "internalType": "address",
          "name": "operator",
          "type": "address"
        },
        {
          "internalType": "bool",
          "name": "approved",
          "type": "bool"
        }
      ],
      "name": "setApprovalForAll",
      "outputs": [],
      "stateMutability": "nonpayable",
      "type": "function"
    },
    {
      "inputs": [
        {
          "internalType": "bytes4",
          "name": "interfaceId",
          "type": "bytes4"
        }
      ],
      "name": "supportsInterface",
      "outputs": [
        {
          "internalType": "bool",
          "name": "",
          "type": "bool"
        }
      ],
      "stateMutability": "view",
      "type": "function",
      "constant": true
    },
    {
      "inputs": [],
      "name": "symbol",
      "outputs": [
        {
          "internalType": "string",
          "name": "",
          "type": "string"
        }
      ],
      "stateMutability": "view",
      "type": "function",
      "constant": true
    },
    {
      "inputs": [
        {
          "internalType": "uint256",
          "name": "tokenId",
          "type": "uint256"
        }
      ],
      "name": "tokenURI",
      "outputs": [
        {
          "internalType": "string",
          "name": "",
          "type": "string"
        }
      ],
      "stateMutability": "view",
      "type": "function",
      "constant": true
    },
    {
      "inputs": [
        {
          "internalType": "address",
          "name": "from",
          "type": "address"
        },
        {
          "internalType": "address",
          "name": "to",
          "type": "address"
        },
        {
          "internalType": "uint256",
          "name": "tokenId",
          "type": "uint256"
        }
      ],
      "name": "transferFrom",
      "outputs": [],
      "stateMutability": "nonpayable",
      "type": "function"
    },
    {
      "inputs": [
        {
          "internalType": "address",
          "name": "newOwner",
          "type": "address"
        }
      ],
      "name": "transferOwnership",
      "outputs": [],
      "stateMutability": "nonpayable",
      "type": "function"
    },
    {
      "inputs": [
        {
          "internalType": "string",
          "name": "name",
          "type": "string"
        },
        {
          "internalType": "uint256",
          "name": "network",
          "type": "uint256"
        },
        {
          "internalType": "address",
          "name": "beneficiary",
          "type": "address"
        },
        {
          "internalType": "bytes32",
          "name": "contentHash",
          "type": "bytes32"
        },
        {
          "internalType": "uint256",
          "name": "tokenId",
          "type": "uint256"
        }
      ],
      "name": "userMint",
      "outputs": [],
      "stateMutability": "payable",
      "type": "function",
      "payable": true
    },
    {
      "inputs": [
        {
          "internalType": "uint256",
          "name": "tokenId",
          "type": "uint256"
        },
        {
          "internalType": "bytes32",
          "name": "fingerprint",
          "type": "bytes32"
        }
      ],
      "name": "verifyFingerprint",
      "outputs": [
        {
          "internalType": "bool",
          "name": "",
          "type": "bool"
        }
      ],
      "stateMutability": "view",
      "type": "function",
      "constant": true
    },
    {
      "inputs": [
        {
          "internalType": "bytes32",
          "name": "hash",
          "type": "bytes32"
        }
      ],
      "name": "existsAsNFT",
      "outputs": [
        {
          "internalType": "bool",
          "name": "",
          "type": "bool"
        }
      ],
      "stateMutability": "view",
      "type": "function",
      "constant": true
    },
    {
      "inputs": [
        {
          "internalType": "uint256",
          "name": "_tokenId",
          "type": "uint256"
        }
      ],
      "name": "burn",
      "outputs": [],
      "stateMutability": "nonpayable",
      "type": "function"
    },
    {
      "inputs": [
        {
          "internalType": "uint256",
          "name": "tokenID",
          "type": "uint256"
        }
      ],
      "name": "nftFromTokenId",
      "outputs": [
        {
          "components": [
            {
              "internalType": "string",
              "name": "name",
              "type": "string"
            },
            {
              "internalType": "uint256",
              "name": "network",
              "type": "uint256"
            },
            {
              "internalType": "address",
              "name": "beneficiary",
              "type": "address"
            },
            {
              "internalType": "bytes32",
              "name": "contentHash",
              "type": "bytes32"
            },
            {
              "internalType": "uint256",
              "name": "tokenId",
              "type": "uint256"
            }
          ],
          "internalType": "struct BEPMotoNFT.NFT",
          "name": "",
          "type": "tuple"
        }
      ],
      "stateMutability": "view",
      "type": "function",
      "constant": true
    },
    {
      "inputs": [
        {
          "internalType": "string",
          "name": "handle",
          "type": "string"
        }
      ],
      "name": "nftFromHandle",
      "outputs": [
        {
          "components": [
            {
              "internalType": "string",
              "name": "name",
              "type": "string"
            },
            {
              "internalType": "uint256",
              "name": "network",
              "type": "uint256"
            },
            {
              "internalType": "address",
              "name": "beneficiary",
              "type": "address"
            },
            {
              "internalType": "bytes32",
              "name": "contentHash",
              "type": "bytes32"
            },
            {
              "internalType": "uint256",
              "name": "tokenId",
              "type": "uint256"
            }
          ],
          "internalType": "struct BEPMotoNFT.NFT",
          "name": "",
          "type": "tuple"
        }
      ],
      "stateMutability": "view",
      "type": "function",
      "constant": true
    },
    {
      "inputs": [
        {
          "internalType": "uint256",
          "name": "tokenId",
          "type": "uint256"
        },
        {
          "internalType": "string",
          "name": "newName",
          "type": "string"
        }
      ],
      "name": "changeName",
      "outputs": [],
      "stateMutability": "payable",
      "type": "function",
      "payable": true
    },
    {
      "inputs": [
        {
          "internalType": "uint256",
          "name": "tokenId",
          "type": "uint256"
        },
        {
          "internalType": "string",
          "name": "newName",
          "type": "string"
        }
      ],
      "name": "adminChangeName",
      "outputs": [],
      "stateMutability": "nonpayable",
      "type": "function"
    },
    {
      "inputs": [
        {
          "internalType": "uint256",
          "name": "tokenId",
          "type": "uint256"
        },
        {
          "internalType": "string",
          "name": "handle",
          "type": "string"
        }
      ],
      "name": "changeHandle",
      "outputs": [],
      "stateMutability": "payable",
      "type": "function",
      "payable": true
    },
    {
      "inputs": [
        {
          "internalType": "uint256",
          "name": "tokenId",
          "type": "uint256"
        },
        {
          "internalType": "string",
          "name": "handle",
          "type": "string"
        }
      ],
      "name": "adminChangeHandle",
      "outputs": [],
      "stateMutability": "nonpayable",
      "type": "function"
    },
    {
      "inputs": [
        {
          "internalType": "uint256",
          "name": "tokenId",
          "type": "uint256"
        }
      ],
      "name": "getHandle",
      "outputs": [
        {
          "internalType": "string",
          "name": "",
          "type": "string"
        }
      ],
      "stateMutability": "view",
      "type": "function",
      "constant": true
    },
    {
      "inputs": [],
      "name": "getCreationFee",
      "outputs": [
        {
          "internalType": "uint256",
          "name": "",
          "type": "uint256"
        }
      ],
      "stateMutability": "view",
      "type": "function",
      "constant": true
    },
    {
      "inputs": [],
      "name": "getNameFee",
      "outputs": [
        {
          "internalType": "uint256",
          "name": "",
          "type": "uint256"
        }
      ],
      "stateMutability": "view",
      "type": "function",
      "constant": true
    },
    {
      "inputs": [],
      "name": "getHandleFee",
      "outputs": [
        {
          "internalType": "uint256",
          "name": "",
          "type": "uint256"
        }
      ],
      "stateMutability": "view",
      "type": "function",
      "constant": true
    },
    {
      "inputs": [
        {
          "internalType": "string",
          "name": "name",
          "type": "string"
        },
        {
          "internalType": "uint256",
          "name": "network",
          "type": "uint256"
        },
        {
          "internalType": "address",
          "name": "beneficiary",
          "type": "address"
        },
        {
          "internalType": "bytes32",
          "name": "contentHash",
          "type": "bytes32"
        },
        {
          "internalType": "uint256",
          "name": "tokenId",
          "type": "uint256"
        }
      ],
      "name": "adminMint",
      "outputs": [],
      "stateMutability": "nonpayable",
      "type": "function"
    },
    {
      "inputs": [
        {
          "internalType": "uint256",
          "name": "_tokenId",
          "type": "uint256"
        },
        {
          "internalType": "string",
          "name": "_uri",
          "type": "string"
        }
      ],
      "name": "setTokenURI",
      "outputs": [],
      "stateMutability": "nonpayable",
      "type": "function"
    },
    {
      "inputs": [
        {
          "internalType": "uint256",
          "name": "fee_",
          "type": "uint256"
        }
      ],
      "name": "setCreationFee",
      "outputs": [],
      "stateMutability": "nonpayable",
      "type": "function"
    },
    {
      "inputs": [
        {
          "internalType": "uint256",
          "name": "fee_",
          "type": "uint256"
        }
      ],
      "name": "setNameFee",
      "outputs": [],
      "stateMutability": "nonpayable",
      "type": "function"
    },
    {
      "inputs": [
        {
          "internalType": "uint256",
          "name": "fee_",
          "type": "uint256"
        }
      ],
      "name": "setHandleFee",
      "outputs": [],
      "stateMutability": "nonpayable",
      "type": "function"
    },
    {
      "inputs": [
        {
          "internalType": "uint256",
          "name": "amount",
          "type": "uint256"
        }
      ],
      "name": "withdraw",
      "outputs": [],
      "stateMutability": "nonpayable",
      "type": "function"
    },
    {
      "inputs": [],
      "name": "totalSupply",
      "outputs": [
        {
          "internalType": "uint256",
          "name": "",
          "type": "uint256"
        }
      ],
      "stateMutability": "view",
      "type": "function",
      "constant": true
    }
  ],
  "bytecode": "0x60806040526040518060400160405280600781526020017f706179206665650000000000000000000000000000000000000000000000000081525060119080519060200190620000519291906200052b565b5060006012553480156200006457600080fd5b50604051620064103803806200641083398181016040528101906200008a919062000659565b81818160009080519060200190620000a49291906200052b565b508060019080519060200190620000bd9291906200052b565b5050506000620000d2620001b960201b60201c565b905080600760006101000a81548173ffffffffffffffffffffffffffffffffffffffff021916908373ffffffffffffffffffffffffffffffffffffffff1602179055508073ffffffffffffffffffffffffffffffffffffffff16600073ffffffffffffffffffffffffffffffffffffffff167f8be0079c531659141344cd1fd0a4f28419497f9722a3daafe3b4186f6b6457e060405160405180910390a3506200019162000185620001c160201b60201c565b620001eb60201b60201c565b620001b1620001a5620001c160201b60201c565b6200038b60201b60201c565b505062000957565b600033905090565b6000600760009054906101000a900473ffffffffffffffffffffffffffffffffffffffff16905090565b620001fb620001b960201b60201c565b73ffffffffffffffffffffffffffffffffffffffff1662000221620001c160201b60201c565b73ffffffffffffffffffffffffffffffffffffffff16146200027a576040517f08c379a000000000000000000000000000000000000000000000000000000000815260040162000271906200072c565b60405180910390fd5b600073ffffffffffffffffffffffffffffffffffffffff168173ffffffffffffffffffffffffffffffffffffffff161415620002ed576040517f08c379a0000000000000000000000000000000000000000000000000000000008152600401620002e4906200074e565b60405180910390fd5b6001600960008373ffffffffffffffffffffffffffffffffffffffff1673ffffffffffffffffffffffffffffffffffffffff16815260200190815260200160002060006101000a81548160ff0219169083151502179055508073ffffffffffffffffffffffffffffffffffffffff167f6ae172837ea30b801fbfcdd4108aa1d5bf8ff775444fd70256b44e6bf3dfc3f660405160405180910390a250565b6200039b620001b960201b60201c565b73ffffffffffffffffffffffffffffffffffffffff16620003c1620001c160201b60201c565b73ffffffffffffffffffffffffffffffffffffffff16146200041a576040517f08c379a000000000000000000000000000000000000000000000000000000000815260040162000411906200072c565b60405180910390fd5b600073ffffffffffffffffffffffffffffffffffffffff168173ffffffffffffffffffffffffffffffffffffffff1614156200048d576040517f08c379a000000000000000000000000000000000000000000000000000000000815260040162000484906200074e565b60405180910390fd5b6001600860008373ffffffffffffffffffffffffffffffffffffffff1673ffffffffffffffffffffffffffffffffffffffff16815260200190815260200160002060006101000a81548160ff0219169083151502179055508073ffffffffffffffffffffffffffffffffffffffff167f44d6d25963f097ad14f29f06854a01f575648a1ef82f30e562ccd3889717e33960405160405180910390a250565b828054620005399062000816565b90600052602060002090601f0160209004810192826200055d5760008555620005a9565b82601f106200057857805160ff1916838001178555620005a9565b82800160010185558215620005a9579182015b82811115620005a85782518255916020019190600101906200058b565b5b509050620005b89190620005bc565b5090565b5b80821115620005d7576000816000905550600101620005bd565b5090565b6000620005f2620005ec8462000799565b62000770565b905082815260208101848484011115620006115762000610620008e5565b5b6200061e848285620007e0565b509392505050565b600082601f8301126200063e576200063d620008e0565b5b815162000650848260208601620005db565b91505092915050565b60008060408385031215620006735762000672620008ef565b5b600083015167ffffffffffffffff811115620006945762000693620008ea565b5b620006a28582860162000626565b925050602083015167ffffffffffffffff811115620006c657620006c5620008ea565b5b620006d48582860162000626565b9150509250929050565b6000620006ed602083620007cf565b9150620006fa8262000905565b602082019050919050565b600062000714600d83620007cf565b915062000721826200092e565b602082019050919050565b600060208201905081810360008301526200074781620006de565b9050919050565b60006020820190508181036000830152620007698162000705565b9050919050565b60006200077c6200078f565b90506200078a82826200084c565b919050565b6000604051905090565b600067ffffffffffffffff821115620007b757620007b6620008b1565b5b620007c282620008f4565b9050602081019050919050565b600082825260208201905092915050565b60005b8381101562000800578082015181840152602081019050620007e3565b8381111562000810576000848401525b50505050565b600060028204905060018216806200082f57607f821691505b6020821081141562000846576200084562000882565b5b50919050565b6200085782620008f4565b810181811067ffffffffffffffff82111715620008795762000878620008b1565b5b80604052505050565b7f4e487b7100000000000000000000000000000000000000000000000000000000600052602260045260246000fd5b7f4e487b7100000000000000000000000000000000000000000000000000000000600052604160045260246000fd5b600080fd5b600080fd5b600080fd5b600080fd5b6000601f19601f8301169050919050565b7f4f776e61626c653a2063616c6c6572206973206e6f7420746865206f776e6572600082015250565b7f61646472657373283029206e6f00000000000000000000000000000000000000600082015250565b615aa980620009676000396000f3fe6080604052600436106102465760003560e01c806370a0823111610139578063b7d86225116100b6578063db07b68e1161007a578063db07b68e14610859578063e4cef27f14610884578063e55553bc146108ad578063e985e9c5146108ea578063ec81d19414610927578063f2fde38b1461096457610246565b8063b7d8622514610771578063b88d4fde1461079a578063c39cbef1146107c3578063c87b56dd146107df578063cb0d992f1461081c57610246565b80638da5cb5b116100fd5780638da5cb5b146106a057806395d89b41146106cb578063983b2d56146106f65780639f58c2a11461071f578063a22cb4651461074857610246565b806370a08231146105bb578063715018a6146105f8578063719e26bf1461060f5780637c2f4cfd1461063a5780638cb5b56b1461066357610246565b80632e1a7d4d116101c75780635371c3c61161018b5780635371c3c6146104e05780636352211e1461051d57806364fec9a01461055a57806365358e4514610576578063704802751461059257610246565b80632e1a7d4d146104135780633092afd51461043c57806342842e0e1461046557806342966c681461048e5780634c518c12146104b757610246565b8063162094c41161020e578063162094c4146103425780631785f53c1461036b57806318160ddd1461039457806323b872dd146103bf5780632614195f146103e857610246565b806301ffc9a71461024b57806306fdde0314610288578063081812fc146102b3578063095ea7b3146102f05780630b0010a814610319575b600080fd5b34801561025757600080fd5b50610272600480360381019061026d9190614022565b61098d565b60405161027f9190614985565b60405180910390f35b34801561029457600080fd5b5061029d610a6f565b6040516102aa91906149a0565b60405180910390f35b3480156102bf57600080fd5b506102da60048036038101906102d59190614163565b610b01565b6040516102e7919061491e565b60405180910390f35b3480156102fc57600080fd5b5061031760048036038101906103129190613fb5565b610b86565b005b34801561032557600080fd5b50610340600480360381019061033b91906141d0565b610c9e565b005b34801561034e57600080fd5b50610369600480360381019061036491906141d0565b610d48565b005b34801561037757600080fd5b50610392600480360381019061038d9190613e32565b610e35565b005b3480156103a057600080fd5b506103a9610fc5565b6040516103b69190614e30565b60405180910390f35b3480156103cb57600080fd5b506103e660048036038101906103e19190613e9f565b610fcf565b005b3480156103f457600080fd5b506103fd61102f565b60405161040a9190614e30565b60405180910390f35b34801561041f57600080fd5b5061043a60048036038101906104359190614163565b611039565b005b34801561044857600080fd5b50610463600480360381019061045e9190613e32565b61110c565b005b34801561047157600080fd5b5061048c60048036038101906104879190613e9f565b61129c565b005b34801561049a57600080fd5b506104b560048036038101906104b09190614163565b6112bc565b005b3480156104c357600080fd5b506104de60048036038101906104d991906141d0565b61145a565b005b3480156104ec57600080fd5b506105076004803603810190610502919061407c565b611504565b6040516105149190614e0e565b60405180910390f35b34801561052957600080fd5b50610544600480360381019061053f9190614163565b6116c2565b604051610551919061491e565b60405180910390f35b610574600480360381019061056f91906141d0565b611774565b005b610590600480360381019061058b91906140c9565b611815565b005b34801561059e57600080fd5b506105b960048036038101906105b49190613e32565b6118f6565b005b3480156105c757600080fd5b506105e260048036038101906105dd9190613e32565b611a80565b6040516105ef9190614e30565b60405180910390f35b34801561060457600080fd5b5061060d611b38565b005b34801561061b57600080fd5b50610624611c75565b6040516106319190614e30565b60405180910390f35b34801561064657600080fd5b50610661600480360381019061065c9190614163565b611c7f565b005b34801561066f57600080fd5b5061068a60048036038101906106859190614190565b611d62565b6040516106979190614985565b60405180910390f35b3480156106ac57600080fd5b506106b5611d8a565b6040516106c2919061491e565b60405180910390f35b3480156106d757600080fd5b506106e0611db4565b6040516106ed91906149a0565b60405180910390f35b34801561070257600080fd5b5061071d60048036038101906107189190613e32565b611e46565b005b34801561072b57600080fd5b5061074660048036038101906107419190614163565b611fd0565b005b34801561075457600080fd5b5061076f600480360381019061076a9190613f75565b6120b3565b005b34801561077d57600080fd5b5061079860048036038101906107939190614163565b612234565b005b3480156107a657600080fd5b506107c160048036038101906107bc9190613ef2565b612317565b005b6107dd60048036038101906107d891906141d0565b612379565b005b3480156107eb57600080fd5b5061080660048036038101906108019190614163565b6123df565b60405161081391906149a0565b60405180910390f35b34801561082857600080fd5b50610843600480360381019061083e9190613ff5565b612531565b6040516108509190614985565b60405180910390f35b34801561086557600080fd5b5061086e61255b565b60405161087b9190614e30565b60405180910390f35b34801561089057600080fd5b506108ab60048036038101906108a691906140c9565b612565565b005b3480156108b957600080fd5b506108d460048036038101906108cf9190614163565b612696565b6040516108e19190614e0e565b60405180910390f35b3480156108f657600080fd5b50610911600480360381019061090c9190613e5f565b6127c9565b60405161091e9190614985565b60405180910390f35b34801561093357600080fd5b5061094e60048036038101906109499190614163565b61285d565b60405161095b91906149a0565b60405180910390f35b34801561097057600080fd5b5061098b60048036038101906109869190613e32565b612965565b005b60007f80ac58cd000000000000000000000000000000000000000000000000000000007bffffffffffffffffffffffffffffffffffffffffffffffffffffffff1916827bffffffffffffffffffffffffffffffffffffffffffffffffffffffff19161480610a5857507f5b5e139f000000000000000000000000000000000000000000000000000000007bffffffffffffffffffffffffffffffffffffffffffffffffffffffff1916827bffffffffffffffffffffffffffffffffffffffffffffffffffffffff1916145b80610a685750610a6782612b11565b5b9050919050565b606060008054610a7e906150af565b80601f0160208091040260200160405190810160405280929190818152602001828054610aaa906150af565b8015610af75780601f10610acc57610100808354040283529160200191610af7565b820191906000526020600020905b815481529060010190602001808311610ada57829003601f168201915b5050505050905090565b6000610b0c82612b7b565b610b4b576040517f08c379a0000000000000000000000000000000000000000000000000000000008152600401610b4290614c32565b60405180910390fd5b6004600083815260200190815260200160002060009054906101000a900473ffffffffffffffffffffffffffffffffffffffff169050919050565b6000610b91826116c2565b90508073ffffffffffffffffffffffffffffffffffffffff168373ffffffffffffffffffffffffffffffffffffffff161415610c02576040517f08c379a0000000000000000000000000000000000000000000000000000000008152600401610bf990614d12565b60405180910390fd5b8073ffffffffffffffffffffffffffffffffffffffff16610c21612be7565b73ffffffffffffffffffffffffffffffffffffffff161480610c505750610c4f81610c4a612be7565b6127c9565b5b610c8f576040517f08c379a0000000000000000000000000000000000000000000000000000000008152600401610c8690614b52565b60405180910390fd5b610c998383612bef565b505050565b6001151560086000610cae612be7565b73ffffffffffffffffffffffffffffffffffffffff1673ffffffffffffffffffffffffffffffffffffffff16815260200190815260200160002060009054906101000a900460ff16151514610d38576040517f08c379a0000000000000000000000000000000000000000000000000000000008152600401610d2f90614dee565b60405180910390fd5b610d43838383612ca8565b505050565b6001151560086000610d58612be7565b73ffffffffffffffffffffffffffffffffffffffff1673ffffffffffffffffffffffffffffffffffffffff16815260200190815260200160002060009054906101000a900460ff16151514610de2576040517f08c379a0000000000000000000000000000000000000000000000000000000008152600401610dd990614dee565b60405180910390fd5b610e308383838080601f016020809104026020016040519081016040528093929190818152602001838380828437600081840152601f19601f82011690508083019250505050505050612ded565b505050565b610e3d612be7565b73ffffffffffffffffffffffffffffffffffffffff16610e5b611d8a565b73ffffffffffffffffffffffffffffffffffffffff1614610eb1576040517f08c379a0000000000000000000000000000000000000000000000000000000008152600401610ea890614c72565b60405180910390fd5b610eb9611d8a565b73ffffffffffffffffffffffffffffffffffffffff168173ffffffffffffffffffffffffffffffffffffffff161415610f27576040517f08c379a0000000000000000000000000000000000000000000000000000000008152600401610f1e90614b32565b60405180910390fd5b6000600860008373ffffffffffffffffffffffffffffffffffffffff1673ffffffffffffffffffffffffffffffffffffffff16815260200190815260200160002060006101000a81548160ff0219169083151502179055508073ffffffffffffffffffffffffffffffffffffffff167fa3b62bc36326052d97ea62d63c3d60308ed4c3ea8ac079dd8499f1e9c4f80c0f60405160405180910390a250565b6000601254905090565b610fe0610fda612be7565b82612e61565b61101f576040517f08c379a000000000000000000000000000000000000000000000000000000000815260040161101690614dae565b60405180910390fd5b61102a838383612f3f565b505050565b6000600f54905090565b611041612be7565b73ffffffffffffffffffffffffffffffffffffffff1661105f611d8a565b73ffffffffffffffffffffffffffffffffffffffff16146110b5576040517f08c379a00000000000000000000000000000000000000000000000000000000081526004016110ac90614c72565b60405180910390fd5b60006110bf611d8a565b90508073ffffffffffffffffffffffffffffffffffffffff166108fc839081150290604051600060405180830381858888f19350505050158015611107573d6000803e3d6000fd5b505050565b611114612be7565b73ffffffffffffffffffffffffffffffffffffffff16611132611d8a565b73ffffffffffffffffffffffffffffffffffffffff1614611188576040517f08c379a000000000000000000000000000000000000000000000000000000000815260040161117f90614c72565b60405180910390fd5b611190611d8a565b73ffffffffffffffffffffffffffffffffffffffff168173ffffffffffffffffffffffffffffffffffffffff1614156111fe576040517f08c379a00000000000000000000000000000000000000000000000000000000081526004016111f590614b32565b60405180910390fd5b6000600960008373ffffffffffffffffffffffffffffffffffffffff1673ffffffffffffffffffffffffffffffffffffffff16815260200190815260200160002060006101000a81548160ff0219169083151502179055508073ffffffffffffffffffffffffffffffffffffffff167fe94479a9f7e1952cc78f2d6baab678adc1b772d936c6583def489e524cb6669260405160405180910390a250565b6112b783838360405180602001604052806000815250612317565b505050565b6112c4612be7565b73ffffffffffffffffffffffffffffffffffffffff166112e3826116c2565b73ffffffffffffffffffffffffffffffffffffffff1614611339576040517f08c379a000000000000000000000000000000000000000000000000000000000815260040161133090614cf2565b60405180910390fd5b6113428161319b565b6000600a600083815260200190815260200160002090506000600b60008360030154815260200190815260200160002060006101000a81548160ff021916908315150217905550600a6000838152602001908152602001600020600080820160006113ad9190613b3d565b60018201600090556002820160006101000a81549073ffffffffffffffffffffffffffffffffffffffff02191690556003820160009055600482016000905550506012600081548092919061140190615085565b9190505560128190555081611414612be7565b73ffffffffffffffffffffffffffffffffffffffff167fd6a6bcd88cdc4656d5f4e14e7dfbc9bc3f2f9811f8d6b508f3bee7d999d4d41c60405160405180910390a35050565b600115156008600061146a612be7565b73ffffffffffffffffffffffffffffffffffffffff1673ffffffffffffffffffffffffffffffffffffffff16815260200190815260200160002060009054906101000a900460ff161515146114f4576040517f08c379a00000000000000000000000000000000000000000000000000000000081526004016114eb90614dee565b60405180910390fd5b6114ff8383836131ee565b505050565b61150c613b7d565b6000600d84846040516115209291906148e1565b9081526020016040518091039020541415611570576040517f08c379a000000000000000000000000000000000000000000000000000000000815260040161156790614a44565b60405180910390fd5b6000600d84846040516115849291906148e1565b9081526020016040518091039020549050600a60008281526020019081526020016000206040518060a00160405290816000820180546115c3906150af565b80601f01602080910402602001604051908101604052809291908181526020018280546115ef906150af565b801561163c5780601f106116115761010080835404028352916020019161163c565b820191906000526020600020905b81548152906001019060200180831161161f57829003601f168201915b50505050508152602001600182015481526020016002820160009054906101000a900473ffffffffffffffffffffffffffffffffffffffff1673ffffffffffffffffffffffffffffffffffffffff1673ffffffffffffffffffffffffffffffffffffffff1681526020016003820154815260200160048201548152505091505092915050565b6000806002600084815260200190815260200160002060009054906101000a900473ffffffffffffffffffffffffffffffffffffffff169050600073ffffffffffffffffffffffffffffffffffffffff168173ffffffffffffffffffffffffffffffffffffffff16141561176b576040517f08c379a000000000000000000000000000000000000000000000000000000000815260040161176290614bb2565b60405180910390fd5b80915050919050565b6010543410156011906117bd576040517f08c379a00000000000000000000000000000000000000000000000000000000081526004016117b491906149c2565b60405180910390fd5b506117c6612be7565b73ffffffffffffffffffffffffffffffffffffffff166117e5846116c2565b73ffffffffffffffffffffffffffffffffffffffff161461180557600080fd5b611810838383612ca8565b505050565b600e5434101560119061185e576040517f08c379a000000000000000000000000000000000000000000000000000000000815260040161185591906149c2565b60405180910390fd5b5060006040518060a0016040528088888080601f016020809104026020016040519081016040528093929190818152602001838380828437600081840152601f19601f8201169050808301925050505050505081526020018681526020018573ffffffffffffffffffffffffffffffffffffffff1681526020018481526020018381525090506118ed8161321f565b50505050505050565b6118fe612be7565b73ffffffffffffffffffffffffffffffffffffffff1661191c611d8a565b73ffffffffffffffffffffffffffffffffffffffff1614611972576040517f08c379a000000000000000000000000000000000000000000000000000000000815260040161196990614c72565b60405180910390fd5b600073ffffffffffffffffffffffffffffffffffffffff168173ffffffffffffffffffffffffffffffffffffffff1614156119e2576040517f08c379a00000000000000000000000000000000000000000000000000000000081526004016119d990614d8e565b60405180910390fd5b6001600860008373ffffffffffffffffffffffffffffffffffffffff1673ffffffffffffffffffffffffffffffffffffffff16815260200190815260200160002060006101000a81548160ff0219169083151502179055508073ffffffffffffffffffffffffffffffffffffffff167f44d6d25963f097ad14f29f06854a01f575648a1ef82f30e562ccd3889717e33960405160405180910390a250565b60008073ffffffffffffffffffffffffffffffffffffffff168273ffffffffffffffffffffffffffffffffffffffff161415611af1576040517f08c379a0000000000000000000000000000000000000000000000000000000008152600401611ae890614b92565b60405180910390fd5b600360008373ffffffffffffffffffffffffffffffffffffffff1673ffffffffffffffffffffffffffffffffffffffff168152602001908152602001600020549050919050565b611b40612be7565b73ffffffffffffffffffffffffffffffffffffffff16611b5e611d8a565b73ffffffffffffffffffffffffffffffffffffffff1614611bb4576040517f08c379a0000000000000000000000000000000000000000000000000000000008152600401611bab90614c72565b60405180910390fd5b600073ffffffffffffffffffffffffffffffffffffffff16600760009054906101000a900473ffffffffffffffffffffffffffffffffffffffff1673ffffffffffffffffffffffffffffffffffffffff167f8be0079c531659141344cd1fd0a4f28419497f9722a3daafe3b4186f6b6457e060405160405180910390a36000600760006101000a81548173ffffffffffffffffffffffffffffffffffffffff021916908373ffffffffffffffffffffffffffffffffffffffff160217905550565b6000601054905090565b6001151560086000611c8f612be7565b73ffffffffffffffffffffffffffffffffffffffff1673ffffffffffffffffffffffffffffffffffffffff16815260200190815260200160002060009054906101000a900460ff16151514611d19576040517f08c379a0000000000000000000000000000000000000000000000000000000008152600401611d1090614dee565b60405180910390fd5b80601081905550807ff4dd97233cb9c3b3f1bcd0bccb83bec53a4e567fda0939df7863869c50fa7498611d4a612be7565b604051611d579190614d60565b60405180910390a250565b600080600a600085815260200190815260200160002090508281600301541491505092915050565b6000600760009054906101000a900473ffffffffffffffffffffffffffffffffffffffff16905090565b606060018054611dc3906150af565b80601f0160208091040260200160405190810160405280929190818152602001828054611def906150af565b8015611e3c5780601f10611e1157610100808354040283529160200191611e3c565b820191906000526020600020905b815481529060010190602001808311611e1f57829003601f168201915b5050505050905090565b611e4e612be7565b73ffffffffffffffffffffffffffffffffffffffff16611e6c611d8a565b73ffffffffffffffffffffffffffffffffffffffff1614611ec2576040517f08c379a0000000000000000000000000000000000000000000000000000000008152600401611eb990614c72565b60405180910390fd5b600073ffffffffffffffffffffffffffffffffffffffff168173ffffffffffffffffffffffffffffffffffffffff161415611f32576040517f08c379a0000000000000000000000000000000000000000000000000000000008152600401611f2990614d8e565b60405180910390fd5b6001600960008373ffffffffffffffffffffffffffffffffffffffff1673ffffffffffffffffffffffffffffffffffffffff16815260200190815260200160002060006101000a81548160ff0219169083151502179055508073ffffffffffffffffffffffffffffffffffffffff167f6ae172837ea30b801fbfcdd4108aa1d5bf8ff775444fd70256b44e6bf3dfc3f660405160405180910390a250565b6001151560086000611fe0612be7565b73ffffffffffffffffffffffffffffffffffffffff1673ffffffffffffffffffffffffffffffffffffffff16815260200190815260200160002060009054906101000a900460ff1615151461206a576040517f08c379a000000000000000000000000000000000000000000000000000000000815260040161206190614dee565b60405180910390fd5b80600f81905550807ff4dd97233cb9c3b3f1bcd0bccb83bec53a4e567fda0939df7863869c50fa749861209b612be7565b6040516120a89190614aa4565b60405180910390a250565b6120bb612be7565b73ffffffffffffffffffffffffffffffffffffffff168273ffffffffffffffffffffffffffffffffffffffff161415612129576040517f08c379a000000000000000000000000000000000000000000000000000000000815260040161212090614af2565b60405180910390fd5b8060056000612136612be7565b73ffffffffffffffffffffffffffffffffffffffff1673ffffffffffffffffffffffffffffffffffffffff16815260200190815260200160002060008473ffffffffffffffffffffffffffffffffffffffff1673ffffffffffffffffffffffffffffffffffffffff16815260200190815260200160002060006101000a81548160ff0219169083151502179055508173ffffffffffffffffffffffffffffffffffffffff166121e3612be7565b73ffffffffffffffffffffffffffffffffffffffff167f17307eab39ab6107e8899845ad3d59bd9653f200f220920489ca2b5937696c31836040516122289190614985565b60405180910390a35050565b6001151560086000612244612be7565b73ffffffffffffffffffffffffffffffffffffffff1673ffffffffffffffffffffffffffffffffffffffff16815260200190815260200160002060009054906101000a900460ff161515146122ce576040517f08c379a00000000000000000000000000000000000000000000000000000000081526004016122c590614dee565b60405180910390fd5b80600e81905550807ff4dd97233cb9c3b3f1bcd0bccb83bec53a4e567fda0939df7863869c50fa74986122ff612be7565b60405161230c9190614d32565b60405180910390a250565b612328612322612be7565b83612e61565b612367576040517f08c379a000000000000000000000000000000000000000000000000000000000815260040161235e90614dae565b60405180910390fd5b61237384848484613373565b50505050565b600f5434101561238857600080fd5b612390612be7565b73ffffffffffffffffffffffffffffffffffffffff166123af846116c2565b73ffffffffffffffffffffffffffffffffffffffff16146123cf57600080fd5b6123da8383836131ee565b505050565b60606123ea82612b7b565b612429576040517f08c379a000000000000000000000000000000000000000000000000000000000815260040161242090614c12565b60405180910390fd5b6000600660008481526020019081526020016000208054612449906150af565b80601f0160208091040260200160405190810160405280929190818152602001828054612475906150af565b80156124c25780601f10612497576101008083540402835291602001916124c2565b820191906000526020600020905b8154815290600101906020018083116124a557829003601f168201915b5050505050905060006124d36133cf565b90506000815114156124e957819250505061252c565b60008251111561251e5780826040516020016125069291906148fa565b6040516020818303038152906040529250505061252c565b612527846133e6565b925050505b919050565b6000600b600083815260200190815260200160002060009054906101000a900460ff169050919050565b6000600e54905090565b6001151560096000612575612be7565b73ffffffffffffffffffffffffffffffffffffffff1673ffffffffffffffffffffffffffffffffffffffff16815260200190815260200160002060009054906101000a900460ff161515146125ff576040517f08c379a00000000000000000000000000000000000000000000000000000000081526004016125f690614cd2565b60405180910390fd5b60006040518060a0016040528088888080601f016020809104026020016040519081016040528093929190818152602001838380828437600081840152601f19601f8201169050808301925050505050505081526020018681526020018573ffffffffffffffffffffffffffffffffffffffff16815260200184815260200183815250905061268d8161321f565b50505050505050565b61269e613b7d565b600a60008381526020019081526020016000206040518060a00160405290816000820180546126cc906150af565b80601f01602080910402602001604051908101604052809291908181526020018280546126f8906150af565b80156127455780601f1061271a57610100808354040283529160200191612745565b820191906000526020600020905b81548152906001019060200180831161272857829003601f168201915b50505050508152602001600182015481526020016002820160009054906101000a900473ffffffffffffffffffffffffffffffffffffffff1673ffffffffffffffffffffffffffffffffffffffff1673ffffffffffffffffffffffffffffffffffffffff168152602001600382015481526020016004820154815250509050919050565b6000600560008473ffffffffffffffffffffffffffffffffffffffff1673ffffffffffffffffffffffffffffffffffffffff16815260200190815260200160002060008373ffffffffffffffffffffffffffffffffffffffff1673ffffffffffffffffffffffffffffffffffffffff16815260200190815260200160002060009054906101000a900460ff16905092915050565b60606000600c6000848152602001908152602001600020805461287f906150af565b905014156128c2576040517f08c379a00000000000000000000000000000000000000000000000000000000081526004016128b990614a44565b60405180910390fd5b600c600083815260200190815260200160002080546128e0906150af565b80601f016020809104026020016040519081016040528092919081815260200182805461290c906150af565b80156129595780601f1061292e57610100808354040283529160200191612959565b820191906000526020600020905b81548152906001019060200180831161293c57829003601f168201915b50505050509050919050565b61296d612be7565b73ffffffffffffffffffffffffffffffffffffffff1661298b611d8a565b73ffffffffffffffffffffffffffffffffffffffff16146129e1576040517f08c379a00000000000000000000000000000000000000000000000000000000081526004016129d890614c72565b60405180910390fd5b600073ffffffffffffffffffffffffffffffffffffffff168173ffffffffffffffffffffffffffffffffffffffff161415612a51576040517f08c379a0000000000000000000000000000000000000000000000000000000008152600401612a4890614a64565b60405180910390fd5b8073ffffffffffffffffffffffffffffffffffffffff16600760009054906101000a900473ffffffffffffffffffffffffffffffffffffffff1673ffffffffffffffffffffffffffffffffffffffff167f8be0079c531659141344cd1fd0a4f28419497f9722a3daafe3b4186f6b6457e060405160405180910390a380600760006101000a81548173ffffffffffffffffffffffffffffffffffffffff021916908373ffffffffffffffffffffffffffffffffffffffff16021790555050565b60007f01ffc9a7000000000000000000000000000000000000000000000000000000007bffffffffffffffffffffffffffffffffffffffffffffffffffffffff1916827bffffffffffffffffffffffffffffffffffffffffffffffffffffffff1916149050919050565b60008073ffffffffffffffffffffffffffffffffffffffff166002600084815260200190815260200160002060009054906101000a900473ffffffffffffffffffffffffffffffffffffffff1673ffffffffffffffffffffffffffffffffffffffff1614159050919050565b600033905090565b816004600083815260200190815260200160002060006101000a81548173ffffffffffffffffffffffffffffffffffffffff021916908373ffffffffffffffffffffffffffffffffffffffff160217905550808273ffffffffffffffffffffffffffffffffffffffff16612c62836116c2565b73ffffffffffffffffffffffffffffffffffffffff167f8c5be1e5ebec7d5bd14f71427d1e84f3dd0314c0f7b2291e5b200ac8c7c3b92560405160405180910390a45050565b60001515612cb584612b7b565b151514612cf7576040517f08c379a0000000000000000000000000000000000000000000000000000000008152600401612cee90614b72565b60405180910390fd5b60008282905011612d3d576040517f08c379a0000000000000000000000000000000000000000000000000000000008152600401612d3490614a04565b60405180910390fd5b6000600d8383604051612d519291906148e1565b90815260200160405180910390205414612da0576040517f08c379a0000000000000000000000000000000000000000000000000000000008152600401612d9790614dce565b60405180910390fd5b82600d8383604051612db39291906148e1565b9081526020016040518091039020819055508181600c60008681526020019081526020016000209190612de7929190613bc5565b50505050565b612df682612b7b565b612e35576040517f08c379a0000000000000000000000000000000000000000000000000000000008152600401612e2c90614bd2565b60405180910390fd5b80600660008481526020019081526020016000209080519060200190612e5c929190613c4b565b505050565b6000612e6c82612b7b565b612eab576040517f08c379a0000000000000000000000000000000000000000000000000000000008152600401612ea290614b12565b60405180910390fd5b6000612eb6836116c2565b90508073ffffffffffffffffffffffffffffffffffffffff168473ffffffffffffffffffffffffffffffffffffffff161480612f2557508373ffffffffffffffffffffffffffffffffffffffff16612f0d84610b01565b73ffffffffffffffffffffffffffffffffffffffff16145b80612f365750612f3581856127c9565b5b91505092915050565b8273ffffffffffffffffffffffffffffffffffffffff16612f5f826116c2565b73ffffffffffffffffffffffffffffffffffffffff1614612fb5576040517f08c379a0000000000000000000000000000000000000000000000000000000008152600401612fac90614c92565b60405180910390fd5b600073ffffffffffffffffffffffffffffffffffffffff168273ffffffffffffffffffffffffffffffffffffffff161415613025576040517f08c379a000000000000000000000000000000000000000000000000000000000815260040161301c90614ad2565b60405180910390fd5b61303083838361348d565b61303b600082612bef565b6001600360008573ffffffffffffffffffffffffffffffffffffffff1673ffffffffffffffffffffffffffffffffffffffff168152602001908152602001600020600082825461308b9190614f91565b925050819055506001600360008473ffffffffffffffffffffffffffffffffffffffff1673ffffffffffffffffffffffffffffffffffffffff16815260200190815260200160002060008282546130e29190614f0a565b92505081905550816002600083815260200190815260200160002060006101000a81548173ffffffffffffffffffffffffffffffffffffffff021916908373ffffffffffffffffffffffffffffffffffffffff160217905550808273ffffffffffffffffffffffffffffffffffffffff168473ffffffffffffffffffffffffffffffffffffffff167fddf252ad1be2c89b69c2b068fc378daa952ba7f163c4a11628f55a4df523b3ef60405160405180910390a4505050565b6131a481613492565b60006006600083815260200190815260200160002080546131c4906150af565b9050146131eb576006600082815260200190815260200160002060006131ea9190613b3d565b5b50565b6000600a600085815260200190815260200160002090508282826000019190613218929190613bc5565b5050505050565b613228816135a3565b61323a81604001518260800151613664565b80600a600083608001518152602001908152602001600020600082015181600001908051906020019061326e929190613c4b565b506020820151816001015560408201518160020160006101000a81548173ffffffffffffffffffffffffffffffffffffffff021916908373ffffffffffffffffffffffffffffffffffffffff16021790555060608201518160030155608082015181600401559050506001600b60008360600151815260200190815260200160002060006101000a81548160ff0219169083151502179055506012600081548092919061331a90615112565b919050556012819055508060800151816040015173ffffffffffffffffffffffffffffffffffffffff167f4cc0a9c4a99ddc700de1af2c9f916a7cbfdb71f14801ccff94061ad1ef8a804060405160405180910390a350565b61337e848484612f3f565b61338a84848484613832565b6133c9576040517f08c379a00000000000000000000000000000000000000000000000000000000081526004016133c090614a24565b60405180910390fd5b50505050565b606060405180602001604052806000815250905090565b60606133f182612b7b565b613430576040517f08c379a000000000000000000000000000000000000000000000000000000000815260040161342790614cb2565b60405180910390fd5b600061343a6133cf565b9050600081511161345a5760405180602001604052806000815250613485565b80613464846139c9565b6040516020016134759291906148fa565b6040516020818303038152906040525b915050919050565b505050565b600061349d826116c2565b90506134ab8160008461348d565b6134b6600083612bef565b6001600360008373ffffffffffffffffffffffffffffffffffffffff1673ffffffffffffffffffffffffffffffffffffffff16815260200190815260200160002060008282546135069190614f91565b925050819055506002600083815260200190815260200160002060006101000a81549073ffffffffffffffffffffffffffffffffffffffff021916905581600073ffffffffffffffffffffffffffffffffffffffff168273ffffffffffffffffffffffffffffffffffffffff167fddf252ad1be2c89b69c2b068fc378daa952ba7f163c4a11628f55a4df523b3ef60405160405180910390a45050565b60001515600b60008360600151815260200190815260200160002060009054906101000a900460ff1615151461360e576040517f08c379a000000000000000000000000000000000000000000000000000000000815260040161360590614c52565b60405180910390fd5b6000151561361f8260800151612b7b565b151514613661576040517f08c379a0000000000000000000000000000000000000000000000000000000008152600401613658906149e4565b60405180910390fd5b50565b600073ffffffffffffffffffffffffffffffffffffffff168273ffffffffffffffffffffffffffffffffffffffff1614156136d4576040517f08c379a00000000000000000000000000000000000000000000000000000000081526004016136cb90614bf2565b60405180910390fd5b6136dd81612b7b565b1561371d576040517f08c379a000000000000000000000000000000000000000000000000000000000815260040161371490614a84565b60405180910390fd5b6137296000838361348d565b6001600360008473ffffffffffffffffffffffffffffffffffffffff1673ffffffffffffffffffffffffffffffffffffffff16815260200190815260200160002060008282546137799190614f0a565b92505081905550816002600083815260200190815260200160002060006101000a81548173ffffffffffffffffffffffffffffffffffffffff021916908373ffffffffffffffffffffffffffffffffffffffff160217905550808273ffffffffffffffffffffffffffffffffffffffff16600073ffffffffffffffffffffffffffffffffffffffff167fddf252ad1be2c89b69c2b068fc378daa952ba7f163c4a11628f55a4df523b3ef60405160405180910390a45050565b60006138538473ffffffffffffffffffffffffffffffffffffffff16613b2a565b156139bc578373ffffffffffffffffffffffffffffffffffffffff1663150b7a0261387c612be7565b8786866040518563ffffffff1660e01b815260040161389e9493929190614939565b602060405180830381600087803b1580156138b857600080fd5b505af19250505080156138e957506040513d601f19601f820116820180604052508101906138e6919061404f565b60015b61396c573d8060008114613919576040519150601f19603f3d011682016040523d82523d6000602084013e61391e565b606091505b50600081511415613964576040517f08c379a000000000000000000000000000000000000000000000000000000000815260040161395b90614a24565b60405180910390fd5b805181602001fd5b63150b7a0260e01b7bffffffffffffffffffffffffffffffffffffffffffffffffffffffff1916817bffffffffffffffffffffffffffffffffffffffffffffffffffffffff1916149150506139c1565b600190505b949350505050565b60606000821415613a11576040518060400160405280600181526020017f30000000000000000000000000000000000000000000000000000000000000008152509050613b25565b600082905060005b60008214613a43578080613a2c90615112565b915050600a82613a3c9190614f60565b9150613a19565b60008167ffffffffffffffff811115613a5f57613a5e615248565b5b6040519080825280601f01601f191660200182016040528015613a915781602001600182028036833780820191505090505b5090505b60008514613b1e57600182613aaa9190614f91565b9150600a85613ab9919061515b565b6030613ac59190614f0a565b60f81b818381518110613adb57613ada615219565b5b60200101907effffffffffffffffffffffffffffffffffffffffffffffffffffffffffffff1916908160001a905350600a85613b179190614f60565b9450613a95565b8093505050505b919050565b600080823b905060008111915050919050565b508054613b49906150af565b6000825580601f10613b5b5750613b7a565b601f016020900490600052602060002090810190613b799190613cd1565b5b50565b6040518060a001604052806060815260200160008152602001600073ffffffffffffffffffffffffffffffffffffffff16815260200160008019168152602001600081525090565b828054613bd1906150af565b90600052602060002090601f016020900481019282613bf35760008555613c3a565b82601f10613c0c57803560ff1916838001178555613c3a565b82800160010185558215613c3a579182015b82811115613c39578235825591602001919060010190613c1e565b5b509050613c479190613cd1565b5090565b828054613c57906150af565b90600052602060002090601f016020900481019282613c795760008555613cc0565b82601f10613c9257805160ff1916838001178555613cc0565b82800160010185558215613cc0579182015b82811115613cbf578251825591602001919060010190613ca4565b5b509050613ccd9190613cd1565b5090565b5b80821115613cea576000816000905550600101613cd2565b5090565b6000613d01613cfc84614e70565b614e4b565b905082815260208101848484011115613d1d57613d1c615286565b5b613d28848285615043565b509392505050565b600081359050613d3f81615a00565b92915050565b600081359050613d5481615a17565b92915050565b600081359050613d6981615a2e565b92915050565b600081359050613d7e81615a45565b92915050565b600081519050613d9381615a45565b92915050565b600082601f830112613dae57613dad61527c565b5b8135613dbe848260208601613cee565b91505092915050565b60008083601f840112613ddd57613ddc61527c565b5b8235905067ffffffffffffffff811115613dfa57613df9615277565b5b602083019150836001820283011115613e1657613e15615281565b5b9250929050565b600081359050613e2c81615a5c565b92915050565b600060208284031215613e4857613e47615290565b5b6000613e5684828501613d30565b91505092915050565b60008060408385031215613e7657613e75615290565b5b6000613e8485828601613d30565b9250506020613e9585828601613d30565b9150509250929050565b600080600060608486031215613eb857613eb7615290565b5b6000613ec686828701613d30565b9350506020613ed786828701613d30565b9250506040613ee886828701613e1d565b9150509250925092565b60008060008060808587031215613f0c57613f0b615290565b5b6000613f1a87828801613d30565b9450506020613f2b87828801613d30565b9350506040613f3c87828801613e1d565b925050606085013567ffffffffffffffff811115613f5d57613f5c61528b565b5b613f6987828801613d99565b91505092959194509250565b60008060408385031215613f8c57613f8b615290565b5b6000613f9a85828601613d30565b9250506020613fab85828601613d45565b9150509250929050565b60008060408385031215613fcc57613fcb615290565b5b6000613fda85828601613d30565b9250506020613feb85828601613e1d565b9150509250929050565b60006020828403121561400b5761400a615290565b5b600061401984828501613d5a565b91505092915050565b60006020828403121561403857614037615290565b5b600061404684828501613d6f565b91505092915050565b60006020828403121561406557614064615290565b5b600061407384828501613d84565b91505092915050565b6000806020838503121561409357614092615290565b5b600083013567ffffffffffffffff8111156140b1576140b061528b565b5b6140bd85828601613dc7565b92509250509250929050565b60008060008060008060a087890312156140e6576140e5615290565b5b600087013567ffffffffffffffff8111156141045761410361528b565b5b61411089828a01613dc7565b9650965050602061412389828a01613e1d565b945050604061413489828a01613d30565b935050606061414589828a01613d5a565b925050608061415689828a01613e1d565b9150509295509295509295565b60006020828403121561417957614178615290565b5b600061418784828501613e1d565b91505092915050565b600080604083850312156141a7576141a6615290565b5b60006141b585828601613e1d565b92505060206141c685828601613d5a565b9150509250929050565b6000806000604084860312156141e9576141e8615290565b5b60006141f786828701613e1d565b935050602084013567ffffffffffffffff8111156142185761421761528b565b5b61422486828701613dc7565b92509250509250925092565b61423981614fc5565b82525050565b61424881614fc5565b82525050565b61425781614fd7565b82525050565b61426681614fe3565b82525050565b600061427782614eb6565b6142818185614ecc565b9350614291818560208601615052565b61429a81615295565b840191505092915050565b60006142b18385614eff565b93506142be838584615043565b82840190509392505050565b60006142d582614ec1565b6142df8185614edd565b93506142ef818560208601615052565b6142f881615295565b840191505092915050565b600061430e82614ec1565b6143188185614eee565b9350614328818560208601615052565b61433181615295565b840191505092915050565b600061434782614ec1565b6143518185614eff565b9350614361818560208601615052565b80840191505092915050565b6000815461437a816150af565b6143848186614eee565b9450600182166000811461439f57600181146143b1576143e4565b60ff19831686526020860193506143e4565b6143ba85614ea1565b60005b838110156143dc578154818901526001820191506020810190506143bd565b808801955050505b50505092915050565b60006143fa600a83614eee565b9150614405826152a6565b602082019050919050565b600061441d600b83614eee565b9150614428826152cf565b602082019050919050565b6000614440603283614eee565b915061444b826152f8565b604082019050919050565b6000614463600983614eee565b915061446e82615347565b602082019050919050565b6000614486602683614eee565b915061449182615370565b604082019050919050565b60006144a9601c83614eee565b91506144b4826153bf565b602082019050919050565b60006144cc600783614eee565b91506144d7826153e8565b602082019050919050565b60006144ef602483614eee565b91506144fa82615411565b604082019050919050565b6000614512601983614eee565b915061451d82615460565b602082019050919050565b6000614535602c83614eee565b915061454082615489565b604082019050919050565b6000614558600b83614eee565b9150614563826154d8565b602082019050919050565b600061457b603883614eee565b915061458682615501565b604082019050919050565b600061459e600883614eee565b91506145a982615550565b602082019050919050565b60006145c1602a83614eee565b91506145cc82615579565b604082019050919050565b60006145e4602983614eee565b91506145ef826155c8565b604082019050919050565b6000614607602e83614eee565b915061461282615617565b604082019050919050565b600061462a602083614eee565b915061463582615666565b602082019050919050565b600061464d603183614eee565b91506146588261568f565b604082019050919050565b6000614670602c83614eee565b915061467b826156de565b604082019050919050565b6000614693600c83614eee565b915061469e8261572d565b602082019050919050565b60006146b6602083614eee565b91506146c182615756565b602082019050919050565b60006146d9602983614eee565b91506146e48261577f565b604082019050919050565b60006146fc602f83614eee565b9150614707826157ce565b604082019050919050565b600061471f602883614eee565b915061472a8261581d565b604082019050919050565b6000614742600a83614eee565b915061474d8261586c565b602082019050919050565b6000614765602183614eee565b915061477082615895565b604082019050919050565b6000614788600b83614eee565b9150614793826158e4565b602082019050919050565b60006147ab600983614eee565b91506147b68261590d565b602082019050919050565b60006147ce600d83614eee565b91506147d982615936565b602082019050919050565b60006147f1603183614eee565b91506147fc8261595f565b604082019050919050565b6000614814600c83614eee565b915061481f826159ae565b602082019050919050565b6000614837600983614eee565b9150614842826159d7565b602082019050919050565b600060a083016000830151848203600086015261486a82826142ca565b915050602083015161487f60208601826148c3565b5060408301516148926040860182614230565b5060608301516148a5606086018261425d565b5060808301516148b860808601826148c3565b508091505092915050565b6148cc81615039565b82525050565b6148db81615039565b82525050565b60006148ee8284866142a5565b91508190509392505050565b6000614906828561433c565b9150614912828461433c565b91508190509392505050565b6000602082019050614933600083018461423f565b92915050565b600060808201905061494e600083018761423f565b61495b602083018661423f565b61496860408301856148d2565b818103606083015261497a818461426c565b905095945050505050565b600060208201905061499a600083018461424e565b92915050565b600060208201905081810360008301526149ba8184614303565b905092915050565b600060208201905081810360008301526149dc818461436d565b905092915050565b600060208201905081810360008301526149fd816143ed565b9050919050565b60006020820190508181036000830152614a1d81614410565b9050919050565b60006020820190508181036000830152614a3d81614433565b9050919050565b60006020820190508181036000830152614a5d81614456565b9050919050565b60006020820190508181036000830152614a7d81614479565b9050919050565b60006020820190508181036000830152614a9d8161449c565b9050919050565b60006040820190508181036000830152614abd816144bf565b9050614acc602083018461423f565b92915050565b60006020820190508181036000830152614aeb816144e2565b9050919050565b60006020820190508181036000830152614b0b81614505565b9050919050565b60006020820190508181036000830152614b2b81614528565b9050919050565b60006020820190508181036000830152614b4b8161454b565b9050919050565b60006020820190508181036000830152614b6b8161456e565b9050919050565b60006020820190508181036000830152614b8b81614591565b9050919050565b60006020820190508181036000830152614bab816145b4565b9050919050565b60006020820190508181036000830152614bcb816145d7565b9050919050565b60006020820190508181036000830152614beb816145fa565b9050919050565b60006020820190508181036000830152614c0b8161461d565b9050919050565b60006020820190508181036000830152614c2b81614640565b9050919050565b60006020820190508181036000830152614c4b81614663565b9050919050565b60006020820190508181036000830152614c6b81614686565b9050919050565b60006020820190508181036000830152614c8b816146a9565b9050919050565b60006020820190508181036000830152614cab816146cc565b9050919050565b60006020820190508181036000830152614ccb816146ef565b9050919050565b60006020820190508181036000830152614ceb81614712565b9050919050565b60006020820190508181036000830152614d0b81614735565b9050919050565b60006020820190508181036000830152614d2b81614758565b9050919050565b60006040820190508181036000830152614d4b8161477b565b9050614d5a602083018461423f565b92915050565b60006040820190508181036000830152614d798161479e565b9050614d88602083018461423f565b92915050565b60006020820190508181036000830152614da7816147c1565b9050919050565b60006020820190508181036000830152614dc7816147e4565b9050919050565b60006020820190508181036000830152614de781614807565b9050919050565b60006020820190508181036000830152614e078161482a565b9050919050565b60006020820190508181036000830152614e28818461484d565b905092915050565b6000602082019050614e4560008301846148d2565b92915050565b6000614e55614e66565b9050614e6182826150e1565b919050565b6000604051905090565b600067ffffffffffffffff821115614e8b57614e8a615248565b5b614e9482615295565b9050602081019050919050565b60008190508160005260206000209050919050565b600081519050919050565b600081519050919050565b600082825260208201905092915050565b600082825260208201905092915050565b600082825260208201905092915050565b600081905092915050565b6000614f1582615039565b9150614f2083615039565b9250827fffffffffffffffffffffffffffffffffffffffffffffffffffffffffffffffff03821115614f5557614f5461518c565b5b828201905092915050565b6000614f6b82615039565b9150614f7683615039565b925082614f8657614f856151bb565b5b828204905092915050565b6000614f9c82615039565b9150614fa783615039565b925082821015614fba57614fb961518c565b5b828203905092915050565b6000614fd082615019565b9050919050565b60008115159050919050565b6000819050919050565b60007fffffffff0000000000000000000000000000000000000000000000000000000082169050919050565b600073ffffffffffffffffffffffffffffffffffffffff82169050919050565b6000819050919050565b82818337600083830152505050565b60005b83811015615070578082015181840152602081019050615055565b8381111561507f576000848401525b50505050565b600061509082615039565b915060008214156150a4576150a361518c565b5b600182039050919050565b600060028204905060018216806150c757607f821691505b602082108114156150db576150da6151ea565b5b50919050565b6150ea82615295565b810181811067ffffffffffffffff8211171561510957615108615248565b5b80604052505050565b600061511d82615039565b91507fffffffffffffffffffffffffffffffffffffffffffffffffffffffffffffffff8214156151505761514f61518c565b5b600182019050919050565b600061516682615039565b915061517183615039565b925082615181576151806151bb565b5b828206905092915050565b7f4e487b7100000000000000000000000000000000000000000000000000000000600052601160045260246000fd5b7f4e487b7100000000000000000000000000000000000000000000000000000000600052601260045260246000fd5b7f4e487b7100000000000000000000000000000000000000000000000000000000600052602260045260246000fd5b7f4e487b7100000000000000000000000000000000000000000000000000000000600052603260045260246000fd5b7f4e487b7100000000000000000000000000000000000000000000000000000000600052604160045260246000fd5b600080fd5b600080fd5b600080fd5b600080fd5b600080fd5b600080fd5b6000601f19601f8301169050919050565b7f6e66742065786973747300000000000000000000000000000000000000000000600082015250565b7f76616c756520656d707479000000000000000000000000000000000000000000600082015250565b7f4552433732313a207472616e7366657220746f206e6f6e20455243373231526560008201527f63656976657220696d706c656d656e7465720000000000000000000000000000602082015250565b7f6e6f2068616e646c650000000000000000000000000000000000000000000000600082015250565b7f4f776e61626c653a206e6577206f776e657220697320746865207a65726f206160008201527f6464726573730000000000000000000000000000000000000000000000000000602082015250565b7f4552433732313a20746f6b656e20616c7265616479206d696e74656400000000600082015250565b7f4e616d6546656500000000000000000000000000000000000000000000000000600082015250565b7f4552433732313a207472616e7366657220746f20746865207a65726f2061646460008201527f7265737300000000000000000000000000000000000000000000000000000000602082015250565b7f4552433732313a20617070726f766520746f2063616c6c657200000000000000600082015250565b7f4552433732313a206f70657261746f7220717565727920666f72206e6f6e657860008201527f697374656e7420746f6b656e0000000000000000000000000000000000000000602082015250565b7f6f776e6572207374617973000000000000000000000000000000000000000000600082015250565b7f4552433732313a20617070726f76652063616c6c6572206973206e6f74206f7760008201527f6e6572206e6f7220617070726f76656420666f7220616c6c0000000000000000602082015250565b7f6e6f20746f6b656e000000000000000000000000000000000000000000000000600082015250565b7f4552433732313a2062616c616e636520717565727920666f7220746865207a6560008201527f726f206164647265737300000000000000000000000000000000000000000000602082015250565b7f4552433732313a206f776e657220717565727920666f72206e6f6e657869737460008201527f656e7420746f6b656e0000000000000000000000000000000000000000000000602082015250565b7f45524337323155524953746f726167653a2055524920736574206f66206e6f6e60008201527f6578697374656e7420746f6b656e000000000000000000000000000000000000602082015250565b7f4552433732313a206d696e7420746f20746865207a65726f2061646472657373600082015250565b7f45524337323155524953746f726167653a2055524920717565727920666f722060008201527f6e6f6e6578697374656e7420746f6b656e000000000000000000000000000000602082015250565b7f4552433732313a20617070726f76656420717565727920666f72206e6f6e657860008201527f697374656e7420746f6b656e0000000000000000000000000000000000000000602082015250565b7f66696c6520686173206e66740000000000000000000000000000000000000000600082015250565b7f4f776e61626c653a2063616c6c6572206973206e6f7420746865206f776e6572600082015250565b7f4552433732313a207472616e73666572206f6620746f6b656e2074686174206960008201527f73206e6f74206f776e0000000000000000000000000000000000000000000000602082015250565b7f4552433732314d657461646174613a2055524920717565727920666f72206e6f60008201527f6e6578697374656e7420746f6b656e0000000000000000000000000000000000602082015250565b7f63616e206e6f74206d696e742062656361757365206e6f7420617070726f766560008201527f64206d696e746572000000000000000000000000000000000000000000000000602082015250565b7f6f6e6c79206f776e657200000000000000000000000000000000000000000000600082015250565b7f4552433732313a20617070726f76616c20746f2063757272656e74206f776e6560008201527f7200000000000000000000000000000000000000000000000000000000000000602082015250565b7f4372656174696f6e466565000000000000000000000000000000000000000000600082015250565b7f48616e646c654665650000000000000000000000000000000000000000000000600082015250565b7f61646472657373283029206e6f00000000000000000000000000000000000000600082015250565b7f4552433732313a207472616e736665722063616c6c6572206973206e6f74206f60008201527f776e6572206e6f7220617070726f766564000000000000000000000000000000602082015250565b7f68616e646c652074616b656e0000000000000000000000000000000000000000600082015250565b7f6e6f742061646d696e0000000000000000000000000000000000000000000000600082015250565b615a0981614fc5565b8114615a1457600080fd5b50565b615a2081614fd7565b8114615a2b57600080fd5b50565b615a3781614fe3565b8114615a4257600080fd5b50565b615a4e81614fed565b8114615a5957600080fd5b50565b615a6581615039565b8114615a7057600080fd5b5056fea264697066735822122086ba2c0b6ab223f6abff9e3a9299e9bedc42d1cb3da103f3b71f47c06175411064736f6c63430008060033",
  "immutableReferences": {},
  "source": "// SPDX-License-Identifier: MIT\npragma solidity ^0.8.0;\n\nimport \"@openzeppelin/contracts/token/ERC721/ERC721.sol\";\nimport \"@openzeppelin/contracts/token/ERC721/extensions/ERC721URIStorage.sol\";\nimport \"./Adminable.sol\";\n\ncontract BEPMotoNFT is ERC721URIStorage, Adminable {\n    constructor(string memory _name, string memory _symbol)\n        ERC721(_name, _symbol)\n    {\n        addMinter(owner());\n        addAdmin(owner());\n    }\n\n    event NFTMinted(address indexed owner, uint256 indexed tokenID);\n    event NFTBurned(address indexed burner, uint256 indexed tokenID);\n\n    struct NFT {\n        string name;\n        uint256 network;\n        address beneficiary;\n        bytes32 contentHash;\n        uint256 tokenId;\n    }\n\n    mapping(uint256 => NFT) private NFTmetaData;\n    mapping(bytes32 => bool) private existingHash;\n    mapping(uint256 => string) private idToHandle;\n    mapping(string => uint256) private handleToId;\n\n    //fees\n    uint256 private _baseCreationFee;\n    uint256 private _nameFee;\n    uint256 private _handleFee;\n    string private _payFeeWarningMsg = \"pay fee\";\n    uint256 private _totalSupply = 0;\n\n    //User Functions\n\n    function userMint(\n        string calldata name,\n        uint256 network,\n        address beneficiary,\n        bytes32 contentHash,\n        uint256 tokenId\n    ) public payable {\n        require(msg.value >= _baseCreationFee, _payFeeWarningMsg);\n        NFT memory nft = NFT(name, network, beneficiary, contentHash, tokenId);\n        _createNFT(nft);\n    }\n\n    function _createNFT(NFT memory nft) private {\n        verifyUnique(nft);\n        super._mint(nft.beneficiary, nft.tokenId);\n        NFTmetaData[nft.tokenId] = nft;\n        existingHash[nft.contentHash] = true;\n        _totalSupply = _totalSupply++;\n        emit NFTMinted(nft.beneficiary, nft.tokenId);\n    }\n\n    function verifyUnique(NFT memory nft) internal view {\n        require(existingHash[nft.contentHash] == false, \"file has nft\");\n        require(_exists(nft.tokenId) == false, \"nft exists\");\n    }\n\n    function verifyFingerprint(uint256 tokenId, bytes32 fingerprint)\n        public\n        view\n        returns (bool)\n    {\n        NFT storage nft = NFTmetaData[tokenId];\n        return nft.contentHash == fingerprint;\n    }\n\n    function existsAsNFT(bytes32 hash) public view returns (bool) {\n        return existingHash[hash];\n    }\n\n    function burn(uint256 _tokenId) public {\n        require(ownerOf(_tokenId) == _msgSender(), \"only owner\");\n        super._burn(_tokenId);\n        NFT storage nft = NFTmetaData[_tokenId];\n        existingHash[nft.contentHash] = false;\n        delete NFTmetaData[_tokenId];\n        _totalSupply = _totalSupply--;\n        emit NFTBurned(_msgSender(), _tokenId);\n    }\n\n    function nftFromTokenId(uint256 tokenID) public view returns (NFT memory) {\n        return NFTmetaData[tokenID];\n    }\n\n    function nftFromHandle(string calldata handle)\n        public view returns (NFT memory){\n        require(handleToId[handle] != 0, \"no handle\");\n        uint256 tokenId = handleToId[handle];\n        return NFTmetaData[tokenId];\n    }\n\n    function changeName(uint256 tokenId, string calldata newName) public\n        payable{\n        require(msg.value >= _nameFee);\n        require(ownerOf(tokenId) == _msgSender());\n        _changeName(tokenId, newName);\n    }\n\n    function adminChangeName(uint256 tokenId, string calldata newName) public\n    onlyAdmins{\n      _changeName(tokenId,newName);\n    }\n\n    function _changeName(uint256 tokenId, string calldata newName) private {\n        NFT storage nft = NFTmetaData[tokenId];\n        nft.name = newName;\n    }\n\n    function changeHandle(uint256 tokenId, string calldata handle)\n        public\n        payable\n    {\n        require(msg.value >= _handleFee, _payFeeWarningMsg);\n        require(ownerOf(tokenId) == _msgSender());\n        _changeHandle(tokenId, handle);\n    }\n\n    function adminChangeHandle(uint256 tokenId, string calldata handle)\n        public\n        onlyAdmins\n    {\n        _changeHandle(tokenId, handle);\n    }\n\n    function _changeHandle(uint256 tokenId, string calldata handle) private {\n        require(_exists(tokenId) == false, \"no token\");\n        require(bytes(handle).length > 0, \"value empty\");\n        require(handleToId[handle] == 0, \"handle taken\");\n        handleToId[handle] = tokenId;\n        idToHandle[tokenId] = handle;\n    }\n\n    function getHandle(uint256 tokenId) public view returns (string memory) {\n        require(bytes(idToHandle[tokenId]).length != 0, \"no handle\");\n        return idToHandle[tokenId];\n    }\n\n    function getCreationFee() public view returns (uint256) {\n        return _baseCreationFee;\n    }\n\n    function getNameFee() public view returns (uint256) {\n        return _nameFee;\n    }\n\n    function getHandleFee() public view returns (uint256) {\n        return _handleFee;\n    }\n\n    //Admin Functions\n\n    function adminMint(\n        string calldata name,\n        uint256 network,\n        address beneficiary,\n        bytes32 contentHash,\n        uint256 tokenId\n    ) public onlyMinters {\n        NFT memory nft = NFT(name, network, beneficiary, contentHash, tokenId);\n        _createNFT(nft);\n    }\n\n    function setTokenURI(uint256 _tokenId, string calldata _uri)\n        public\n        onlyAdmins\n    {\n        super._setTokenURI(_tokenId, _uri);\n    }\n\n    function setCreationFee(uint256 fee_) public onlyAdmins {\n        _baseCreationFee = fee_;\n        emit NewFeeSet(\"CreationFee\", fee_, _msgSender());\n    }\n\n    function setNameFee(uint256 fee_) public onlyAdmins {\n        _nameFee = fee_;\n        emit NewFeeSet(\"NameFee\", fee_, _msgSender());\n    }\n\n    function setHandleFee(uint256 fee_) public onlyAdmins {\n        _handleFee = fee_;\n        emit NewFeeSet(\"HandleFee\", fee_, _msgSender());\n    }\n\n    function withdraw(uint256 amount) external onlyOwner {\n        address payable payee = payable(owner());\n        payee.transfer(amount);\n    }\n\n    function totalSupply() public view returns (uint256) {\n        return _totalSupply;\n    }\n}\n",
  "sourcePath": "/Users/yvan/Dropbox/projects/moto/contracts/marketplace-contracts/contracts/BEPMotoNFT.sol",
  "compiler": {
    "name": "solc",
    "version": "0.8.6+commit.11564f7e.Emscripten.clang"
  },
  "schemaVersion": "3.4.2",
  "updatedAt": "2021-07-30T14:26:31.765Z",
  "networkType": "ethereum",
  "devdoc": {
    "kind": "dev",
    "methods": {
      "approve(address,uint256)": {
        "details": "See {IERC721-approve}."
      },
      "balanceOf(address)": {
        "details": "See {IERC721-balanceOf}."
      },
      "getApproved(uint256)": {
        "details": "See {IERC721-getApproved}."
      },
      "isApprovedForAll(address,address)": {
        "details": "See {IERC721-isApprovedForAll}."
      },
      "name()": {
        "details": "See {IERC721Metadata-name}."
      },
      "owner()": {
        "details": "Returns the address of the current owner."
      },
      "ownerOf(uint256)": {
        "details": "See {IERC721-ownerOf}."
      },
      "renounceOwnership()": {
        "details": "Leaves the contract without owner. It will not be possible to call `onlyOwner` functions anymore. Can only be called by the current owner. NOTE: Renouncing ownership will leave the contract without an owner, thereby removing any functionality that is only available to the owner."
      },
      "safeTransferFrom(address,address,uint256)": {
        "details": "See {IERC721-safeTransferFrom}."
      },
      "safeTransferFrom(address,address,uint256,bytes)": {
        "details": "See {IERC721-safeTransferFrom}."
      },
      "setApprovalForAll(address,bool)": {
        "details": "See {IERC721-setApprovalForAll}."
      },
      "supportsInterface(bytes4)": {
        "details": "See {IERC165-supportsInterface}."
      },
      "symbol()": {
        "details": "See {IERC721Metadata-symbol}."
      },
      "tokenURI(uint256)": {
        "details": "See {IERC721Metadata-tokenURI}."
      },
      "transferFrom(address,address,uint256)": {
        "details": "See {IERC721-transferFrom}."
      },
      "transferOwnership(address)": {
        "details": "Transfers ownership of the contract to a new account (`newOwner`). Can only be called by the current owner."
      }
    },
    "version": 1
  },
  "userdoc": {
    "kind": "user",
    "methods": {
      "addMinter(address)": {
        "notice": "Administrative Functions"
      }
    },
    "version": 1
  }
}